{
  "contractName": "Voting",
  "abi": [
    {
      "inputs": [],
      "stateMutability": "nonpayable",
      "type": "constructor"
    },
    {
      "anonymous": false,
      "inputs": [
        {
          "indexed": true,
          "internalType": "uint256",
          "name": "id",
          "type": "uint256"
        },
        {
          "indexed": true,
          "internalType": "address",
          "name": "voter",
          "type": "address"
        }
      ],
      "name": "Voted",
      "type": "event"
    },
    {
      "anonymous": false,
      "inputs": [
        {
          "indexed": true,
          "internalType": "uint256",
          "name": "id",
          "type": "uint256"
        },
        {
          "indexed": true,
          "internalType": "address",
          "name": "owner",
          "type": "address"
        }
      ],
      "name": "VotingCreated",
      "type": "event"
    },
    {
      "inputs": [
        {
          "internalType": "string",
          "name": "name",
          "type": "string"
        }
      ],
      "name": "createVoting",
      "outputs": [
        {
          "internalType": "uint256",
          "name": "",
          "type": "uint256"
        }
      ],
      "stateMutability": "payable",
      "type": "function",
      "payable": true
    },
    {
      "inputs": [
        {
          "internalType": "uint256",
          "name": "voting",
          "type": "uint256"
        },
        {
          "internalType": "string",
          "name": "name",
          "type": "string"
        }
      ],
      "name": "addOption",
      "outputs": [
        {
          "internalType": "bool",
          "name": "",
          "type": "bool"
        }
      ],
      "stateMutability": "nonpayable",
      "type": "function"
    },
    {
      "inputs": [
        {
          "internalType": "uint256",
          "name": "voting",
          "type": "uint256"
        }
      ],
      "name": "canIVote",
      "outputs": [
        {
          "internalType": "uint256",
          "name": "",
          "type": "uint256"
        }
      ],
      "stateMutability": "view",
      "type": "function",
      "constant": true
    },
    {
      "inputs": [
        {
          "internalType": "uint256",
          "name": "voting",
          "type": "uint256"
        }
      ],
      "name": "myVotes",
      "outputs": [
        {
          "internalType": "uint256",
          "name": "",
          "type": "uint256"
        }
      ],
      "stateMutability": "view",
      "type": "function",
      "constant": true
    },
    {
      "inputs": [
        {
          "internalType": "uint256",
          "name": "voting",
          "type": "uint256"
        },
        {
          "internalType": "uint256",
          "name": "_vote",
          "type": "uint256"
        }
      ],
      "name": "vote",
      "outputs": [
        {
          "internalType": "bool",
          "name": "",
          "type": "bool"
        }
      ],
      "stateMutability": "payable",
      "type": "function",
      "payable": true
    },
    {
      "inputs": [
        {
          "internalType": "address",
          "name": "voter",
          "type": "address"
        },
        {
          "internalType": "uint256",
          "name": "voting",
          "type": "uint256"
        },
        {
          "internalType": "uint256",
          "name": "_votes",
          "type": "uint256"
        }
      ],
      "name": "addVoter",
      "outputs": [
        {
          "internalType": "bool",
          "name": "",
          "type": "bool"
        }
      ],
      "stateMutability": "payable",
      "type": "function",
      "payable": true
    },
    {
      "inputs": [
        {
          "internalType": "uint256",
          "name": "voting",
          "type": "uint256"
        }
      ],
      "name": "getVotes",
      "outputs": [
        {
          "internalType": "uint256[]",
          "name": "",
          "type": "uint256[]"
        }
      ],
      "stateMutability": "view",
      "type": "function",
      "constant": true
    },
    {
      "inputs": [
        {
          "internalType": "uint256",
          "name": "voting",
          "type": "uint256"
        }
      ],
      "name": "getVotingOptions",
      "outputs": [
        {
          "internalType": "string[]",
          "name": "",
          "type": "string[]"
        }
      ],
      "stateMutability": "view",
      "type": "function",
      "constant": true
    },
    {
      "inputs": [
        {
          "internalType": "uint256",
          "name": "voting",
          "type": "uint256"
        },
        {
          "internalType": "uint256",
          "name": "_vote",
          "type": "uint256"
        }
      ],
      "name": "getVoters",
      "outputs": [
        {
          "internalType": "address[]",
          "name": "",
          "type": "address[]"
        }
      ],
      "stateMutability": "view",
      "type": "function",
      "constant": true
    },
    {
      "inputs": [],
      "name": "availableVotings",
      "outputs": [
        {
          "components": [
            {
              "internalType": "uint256",
              "name": "id",
              "type": "uint256"
            },
            {
              "internalType": "string",
              "name": "name",
              "type": "string"
            }
          ],
          "internalType": "struct Voting.votingModel[]",
          "name": "",
          "type": "tuple[]"
        }
      ],
      "stateMutability": "view",
      "type": "function",
      "constant": true
    }
  ],
  "bytecode": "0x6080604052600060015534801561001557600080fd5b50336000806101000a81548173ffffffffffffffffffffffffffffffffffffffff021916908373ffffffffffffffffffffffffffffffffffffffff1602179055506118b3806100656000396000f3fe6080604052600436106100915760003560e01c8063932f925f11610059578063932f925f1461019b578063b384abef146101d8578063e4ee00a614610208578063ea57d5d414610245578063ff9810991461028257610091565b80633aa68c0d14610096578063677c3f9c146100d357806367bc9f23146101035780636b63399a1461012e5780638884b8071461015e575b600080fd5b3480156100a257600080fd5b506100bd60048036038101906100b891906110a8565b6102bf565b6040516100ca91906114b4565b60405180910390f35b6100ed60048036038101906100e89190611067565b610320565b6040516100fa91906114b4565b60405180910390f35b34801561010f57600080fd5b5061011861045e565b6040516101259190611455565b60405180910390f35b61014860048036038101906101439190611018565b610670565b6040516101559190611499565b60405180910390f35b34801561016a57600080fd5b5061018560048036038101906101809190611125565b610729565b6040516101929190611411565b60405180910390f35b3480156101a757600080fd5b506101c260048036038101906101bd91906110a8565b6107dc565b6040516101cf91906114b4565b60405180910390f35b6101f260048036038101906101ed9190611125565b61083d565b6040516101ff9190611499565b60405180910390f35b34801561021457600080fd5b5061022f600480360381019061022a91906110a8565b610bc5565b60405161023c9190611433565b60405180910390f35b34801561025157600080fd5b5061026c600480360381019061026791906110d1565b610cb1565b6040516102799190611499565b60405180910390f35b34801561028e57600080fd5b506102a960048036038101906102a491906110a8565b610d45565b6040516102b69190611477565b60405180910390f35b6000600860006102cd610db0565b73ffffffffffffffffffffffffffffffffffffffff1673ffffffffffffffffffffffffffffffffffffffff1681526020019081526020016000206000838152602001908152602001600020549050919050565b600060015460026000610331610db0565b73ffffffffffffffffffffffffffffffffffffffff1673ffffffffffffffffffffffffffffffffffffffff16815260200190815260200160002081905550606080600360006001548152602001908152602001600020908051906020019061039a929190610db8565b508260056000600154815260200190815260200160002090805190602001906103c4929190610e05565b5060608060046000600154815260200190815260200160002090805190602001906103f0929190610e8b565b506103f9610db0565b73ffffffffffffffffffffffffffffffffffffffff166001547f95cb6541033c186cefb81bf06f734a798256d8a6cd70133f8d7b4480b080210060405160405180910390a36001600081548092919061045190611768565b9190505592505050919050565b60606000600a67ffffffffffffffff8111156104a3577f4e487b7100000000000000000000000000000000000000000000000000000000600052604160045260246000fd5b6040519080825280602002602001820160405280156104dc57816020015b6104c9610eeb565b8152602001906001900390816104c15790505b5090506000805b600154811015610667576000600860006104fb610db0565b73ffffffffffffffffffffffffffffffffffffffff1673ffffffffffffffffffffffffffffffffffffffff1681526020019081526020016000206000838152602001908152602001600020541115610654576000604051806040016040528083815260200160056000858152602001908152602001600020805461057e90611705565b80601f01602080910402602001604051908101604052809291908181526020018280546105aa90611705565b80156105f75780601f106105cc576101008083540402835291602001916105f7565b820191906000526020600020905b8154815290600101906020018083116105da57829003601f168201915b505050505081525090508084848061060e90611768565b955081518110610647577f4e487b7100000000000000000000000000000000000000000000000000000000600052603260045260246000fd5b6020026020010181905250505b808061065f90611768565b9150506104e3565b50819250505090565b6000826002600061067f610db0565b73ffffffffffffffffffffffffffffffffffffffff1673ffffffffffffffffffffffffffffffffffffffff16815260200190815260200160002054146106c85760009050610722565b81600860008673ffffffffffffffffffffffffffffffffffffffff1673ffffffffffffffffffffffffffffffffffffffff168152602001908152602001600020600085815260200190815260200160002081905550600190505b9392505050565b60606007600084815260200190815260200160002060008381526020019081526020016000208054806020026020016040519081016040528092919081815260200182805480156107cf57602002820191906000526020600020905b8160009054906101000a900473ffffffffffffffffffffffffffffffffffffffff1673ffffffffffffffffffffffffffffffffffffffff1681526020019060010190808311610785575b5050505050905092915050565b6000600660006107ea610db0565b73ffffffffffffffffffffffffffffffffffffffff1673ffffffffffffffffffffffffffffffffffffffff1681526020019081526020016000206000838152602001908152602001600020549050919050565b6000806008600061084c610db0565b73ffffffffffffffffffffffffffffffffffffffff1673ffffffffffffffffffffffffffffffffffffffff16815260200190815260200160002060008581526020019081526020016000205414156108a75760009050610bbf565b600660006108b3610db0565b73ffffffffffffffffffffffffffffffffffffffff1673ffffffffffffffffffffffffffffffffffffffff1681526020019081526020016000206000848152602001908152602001600020546008600061090b610db0565b73ffffffffffffffffffffffffffffffffffffffff1673ffffffffffffffffffffffffffffffffffffffff16815260200190815260200160002060008581526020019081526020016000205414156109665760009050610bbf565b60016003600085815260200190815260200160002083815481106109b3577f4e487b7100000000000000000000000000000000000000000000000000000000600052603260045260246000fd5b90600052602060002001546109c89190611625565b600360008581526020019081526020016000208381548110610a13577f4e487b7100000000000000000000000000000000000000000000000000000000600052603260045260246000fd5b9060005260206000200181905550600760008481526020019081526020016000206000838152602001908152602001600020610a4d610db0565b9080600181540180825580915050600190039060005260206000200160009091909190916101000a81548173ffffffffffffffffffffffffffffffffffffffff021916908373ffffffffffffffffffffffffffffffffffffffff16021790555060066000610ab9610db0565b73ffffffffffffffffffffffffffffffffffffffff1673ffffffffffffffffffffffffffffffffffffffff16815260200190815260200160002060008481526020019081526020016000206000815480929190610b1590611768565b9190505550610b22610db0565b73ffffffffffffffffffffffffffffffffffffffff16600360008581526020019081526020016000208381548110610b83577f4e487b7100000000000000000000000000000000000000000000000000000000600052603260045260246000fd5b90600052602060002001547f030b0f8dcd86a031eddb071f91882edeac8173663ba775713b677b42b51be44b60405160405180910390a3600190505b92915050565b606060046000838152602001908152602001600020805480602002602001604051908101604052809291908181526020016000905b82821015610ca6578382906000526020600020018054610c1990611705565b80601f0160208091040260200160405190810160405280929190818152602001828054610c4590611705565b8015610c925780601f10610c6757610100808354040283529160200191610c92565b820191906000526020600020905b815481529060010190602001808311610c7557829003601f168201915b505050505081526020019060010190610bfa565b505050509050919050565b600060036000848152602001908152602001600020600090806001815401808255809150506001900390600052602060002001600090919091909150556004600084815260200190815260200160002082908060018154018082558091505060019003906000526020600020016000909190919091509080519060200190610d3a929190610e05565b506001905092915050565b606060036000838152602001908152602001600020805480602002602001604051908101604052809291908181526020018280548015610da457602002820191906000526020600020905b815481526020019060010190808311610d90575b50505050509050919050565b600033905090565b828054828255906000526020600020908101928215610df4579160200282015b82811115610df3578251825591602001919060010190610dd8565b5b509050610e019190610f05565b5090565b828054610e1190611705565b90600052602060002090601f016020900481019282610e335760008555610e7a565b82601f10610e4c57805160ff1916838001178555610e7a565b82800160010185558215610e7a579182015b82811115610e79578251825591602001919060010190610e5e565b5b509050610e879190610f05565b5090565b828054828255906000526020600020908101928215610eda579160200282015b82811115610ed9578251829080519060200190610ec9929190610e05565b5091602001919060010190610eab565b5b509050610ee79190610f22565b5090565b604051806040016040528060008152602001606081525090565b5b80821115610f1e576000816000905550600101610f06565b5090565b5b80821115610f425760008181610f399190610f46565b50600101610f23565b5090565b508054610f5290611705565b6000825580601f10610f645750610f83565b601f016020900490600052602060002090810190610f829190610f05565b5b50565b6000610f99610f94846114f4565b6114cf565b905082815260208101848484011115610fb157600080fd5b610fbc8482856116c3565b509392505050565b600081359050610fd38161184f565b92915050565b600082601f830112610fea57600080fd5b8135610ffa848260208601610f86565b91505092915050565b60008135905061101281611866565b92915050565b60008060006060848603121561102d57600080fd5b600061103b86828701610fc4565b935050602061104c86828701611003565b925050604061105d86828701611003565b9150509250925092565b60006020828403121561107957600080fd5b600082013567ffffffffffffffff81111561109357600080fd5b61109f84828501610fd9565b91505092915050565b6000602082840312156110ba57600080fd5b60006110c884828501611003565b91505092915050565b600080604083850312156110e457600080fd5b60006110f285828601611003565b925050602083013567ffffffffffffffff81111561110f57600080fd5b61111b85828601610fd9565b9150509250929050565b6000806040838503121561113857600080fd5b600061114685828601611003565b925050602061115785828601611003565b9150509250929050565b600061116d83836111b9565b60208301905092915050565b6000611185838361137d565b905092915050565b600061119983836113b6565b905092915050565b60006111ad83836113f3565b60208301905092915050565b6111c28161167b565b82525050565b60006111d382611565565b6111dd81856115d0565b93506111e883611525565b8060005b838110156112195781516112008882611161565b975061120b8361159c565b9250506001810190506111ec565b5085935050505092915050565b600061123182611570565b61123b81856115e1565b93508360208202850161124d85611535565b8060005b85811015611289578484038952815161126a8582611179565b9450611275836115a9565b925060208a01995050600181019050611251565b50829750879550505050505092915050565b60006112a68261157b565b6112b081856115f2565b9350836020820285016112c285611545565b8060005b858110156112fe57848403895281516112df858261118d565b94506112ea836115b6565b925060208a019950506001810190506112c6565b50829750879550505050505092915050565b600061131b82611586565b6113258185611603565b935061133083611555565b8060005b8381101561136157815161134888826111a1565b9750611353836115c3565b925050600181019050611334565b5085935050505092915050565b6113778161168d565b82525050565b600061138882611591565b6113928185611614565b93506113a28185602086016116d2565b6113ab8161183e565b840191505092915050565b60006040830160008301516113ce60008601826113f3565b50602083015184820360208601526113e6828261137d565b9150508091505092915050565b6113fc816116b9565b82525050565b61140b816116b9565b82525050565b6000602082019050818103600083015261142b81846111c8565b905092915050565b6000602082019050818103600083015261144d8184611226565b905092915050565b6000602082019050818103600083015261146f818461129b565b905092915050565b600060208201905081810360008301526114918184611310565b905092915050565b60006020820190506114ae600083018461136e565b92915050565b60006020820190506114c96000830184611402565b92915050565b60006114d96114ea565b90506114e58282611737565b919050565b6000604051905090565b600067ffffffffffffffff82111561150f5761150e61180f565b5b6115188261183e565b9050602081019050919050565b6000819050602082019050919050565b6000819050602082019050919050565b6000819050602082019050919050565b6000819050602082019050919050565b600081519050919050565b600081519050919050565b600081519050919050565b600081519050919050565b600081519050919050565b6000602082019050919050565b6000602082019050919050565b6000602082019050919050565b6000602082019050919050565b600082825260208201905092915050565b600082825260208201905092915050565b600082825260208201905092915050565b600082825260208201905092915050565b600082825260208201905092915050565b6000611630826116b9565b915061163b836116b9565b9250827fffffffffffffffffffffffffffffffffffffffffffffffffffffffffffffffff038211156116705761166f6117b1565b5b828201905092915050565b600061168682611699565b9050919050565b60008115159050919050565b600073ffffffffffffffffffffffffffffffffffffffff82169050919050565b6000819050919050565b82818337600083830152505050565b60005b838110156116f05780820151818401526020810190506116d5565b838111156116ff576000848401525b50505050565b6000600282049050600182168061171d57607f821691505b60208210811415611731576117306117e0565b5b50919050565b6117408261183e565b810181811067ffffffffffffffff8211171561175f5761175e61180f565b5b80604052505050565b6000611773826116b9565b91507fffffffffffffffffffffffffffffffffffffffffffffffffffffffffffffffff8214156117a6576117a56117b1565b5b600182019050919050565b7f4e487b7100000000000000000000000000000000000000000000000000000000600052601160045260246000fd5b7f4e487b7100000000000000000000000000000000000000000000000000000000600052602260045260246000fd5b7f4e487b7100000000000000000000000000000000000000000000000000000000600052604160045260246000fd5b6000601f19601f8301169050919050565b6118588161167b565b811461186357600080fd5b50565b61186f816116b9565b811461187a57600080fd5b5056fea264697066735822122034766c861e1d95775006f5153e7725ed83b1f858cf11608b1643161fbc34611c64736f6c63430008040033",
  "immutableReferences": {},
  "source": "// SPDX-License-Identifier: MIT\npragma solidity ^0.8.4;\n\n// Voting\ncontract Voting {\n\n    // When new voting was created\n    event VotingCreated(uint256 indexed id, address indexed owner);\n    event Voted(uint256 indexed id, address indexed voter);\n\n    // Owner of the contract (for admin controls)\n    address owner;\n\n    // Votings\n    uint256 votingCounter = 0;\n    mapping (address => uint256) votings;\n    mapping (uint256 => uint256[]) votes;\n    mapping (uint256 => string[]) optionNames;\n    mapping (uint256 => string) votesName;\n    mapping (address => mapping(uint256 => uint256)) voted;\n    mapping (uint256 => mapping(uint256 => address[])) voters;\n\n    // allowed to vote\n    mapping (address => mapping(uint256 => uint256)) votingAllowed;\n\n    // Set owner and DI OriToken\n    constructor() {\n        owner = msg.sender;\n    }\n\n    // Create new Voting\n    function createVoting(string memory name) public payable returns (uint256) {\n        votings[_msgSender()] = votingCounter;\n\n        uint256[] memory emptyArray;\n        votes[votingCounter] = emptyArray;\n        votesName[votingCounter] = name;\n\n        string[] memory _optionNames;\n        optionNames[votingCounter] = _optionNames;\n\n        emit VotingCreated(votingCounter, _msgSender());\n\n        return votingCounter++;\n    }\n\n    struct votingModel {\n        uint256 id;\n        string name;\n    }\n\n    // Add option\n    function addOption(uint256 voting, string memory name) public returns (bool) {\n        votes[voting].push(0);\n        optionNames[voting].push(name);\n        return true;\n    }\n\n    function canIVote(uint256 voting) public view returns (uint256){\n        return votingAllowed[_msgSender()][voting];\n    }\n\n    function myVotes(uint256 voting) public view returns (uint256){\n        return voted[_msgSender()][voting];\n    }\n\n    // Vote\n    function vote(uint256 voting, uint256 _vote) public payable returns (bool) {\n        if (votingAllowed[_msgSender()][voting] == 0)\n            return false;\n\n        if (votingAllowed[_msgSender()][voting] == voted[_msgSender()][voting])\n            return false;\n\n        votes[voting][_vote] = votes[voting][_vote] + 1;\n        voters[voting][_vote].push(_msgSender());\n        voted[_msgSender()][voting]++;\n\n        emit Voted(votes[voting][_vote], _msgSender());\n\n        return true;\n    }\n\n    // add voter (only from the one who created voting)\n    function addVoter(address voter, uint256 voting, uint256 _votes) public payable returns (bool) {\n        if (votings[_msgSender()] != voting)\n            return false;\n\n        votingAllowed[voter][voting] = _votes;\n\n        return true;\n    }\n\n    // Get votes of voting\n    function getVotes(uint256 voting) public view returns (uint256[] memory) {\n        return votes[voting];\n    }\n\n    function getVotingOptions(uint256 voting) public view returns (string[] memory){\n        return optionNames[voting];\n    }\n\n    // Get voters of voting\n    function getVoters(uint256 voting, uint256 _vote) public view returns (address[] memory) {\n        return voters[voting][_vote];\n    }\n\n    // get votings of one\n    function availableVotings() public view returns (votingModel[] memory) {\n        votingModel[] memory myVotings = new votingModel[](10);\n        uint256 counter = 0;\n\n        for (uint i=0; i<votingCounter; i++) {\n            if (votingAllowed[_msgSender()][i] > 0){\n                votingModel memory v = votingModel(i, votesName[i]);\n                myVotings[counter++] = v;\n            }\n        }\n\n        return myVotings;\n    }\n\n    // Safe access to msg.sender\n    function _msgSender() internal view virtual returns (address) {\n        return msg.sender;\n    }\n\n}\n",
  "sourcePath": "/Users/michaelhasler/development/voting/contracts/Voting.sol",
  "compiler": {
    "name": "solc",
    "version": "0.8.4+commit.c7e474f2.Emscripten.clang"
  },
  "schemaVersion": "3.4.4",
  "updatedAt": "2022-02-24T12:46:18.618Z",
  "networkType": "ethereum",
  "devdoc": {
    "kind": "dev",
    "methods": {},
    "version": 1
  },
  "userdoc": {
    "kind": "user",
    "methods": {},
    "version": 1
  }
}