{
  "contractName": "Voting",
  "abi": [
    {
      "inputs": [],
      "stateMutability": "nonpayable",
      "type": "constructor"
    },
    {
      "anonymous": false,
      "inputs": [
        {
          "indexed": true,
          "internalType": "uint256",
          "name": "id",
          "type": "uint256"
        },
        {
          "indexed": true,
          "internalType": "address",
          "name": "owner",
          "type": "address"
        }
      ],
      "name": "VotingCreated",
      "type": "event"
    },
    {
      "inputs": [],
      "name": "createVoting",
      "outputs": [
        {
          "internalType": "uint256",
          "name": "",
          "type": "uint256"
        }
      ],
      "stateMutability": "payable",
      "type": "function"
    },
    {
      "inputs": [
        {
          "internalType": "uint256",
          "name": "voting",
          "type": "uint256"
        }
      ],
      "name": "addOption",
      "outputs": [
        {
          "internalType": "bool",
          "name": "",
          "type": "bool"
        }
      ],
      "stateMutability": "nonpayable",
      "type": "function"
    },
    {
      "inputs": [
        {
          "internalType": "uint256",
          "name": "voting",
          "type": "uint256"
        },
        {
          "internalType": "uint256",
          "name": "_vote",
          "type": "uint256"
        }
      ],
      "name": "vote",
      "outputs": [
        {
          "internalType": "bool",
          "name": "",
          "type": "bool"
        }
      ],
      "stateMutability": "payable",
      "type": "function"
    },
    {
      "inputs": [
        {
          "internalType": "uint256",
          "name": "voting",
          "type": "uint256"
        }
      ],
      "name": "getVotes",
      "outputs": [
        {
          "internalType": "uint256[]",
          "name": "",
          "type": "uint256[]"
        }
      ],
      "stateMutability": "view",
      "type": "function"
    },
    {
      "inputs": [
        {
          "internalType": "uint256",
          "name": "voting",
          "type": "uint256"
        },
        {
          "internalType": "uint256",
          "name": "_vote",
          "type": "uint256"
        }
      ],
      "name": "getVoters",
      "outputs": [
        {
          "internalType": "address[]",
          "name": "",
          "type": "address[]"
        }
      ],
      "stateMutability": "view",
      "type": "function"
    }
  ],
  "bytecode": "0x6080604052600060015534801561001557600080fd5b50336000806101000a81548173ffffffffffffffffffffffffffffffffffffffff021916908373ffffffffffffffffffffffffffffffffffffffff160217905550610a37806100656000396000f3fe60806040526004361061004a5760003560e01c80633c5663df1461004f5780638125e7f01461006d5780638884b807146100aa578063b384abef146100e7578063ff98109914610117575b600080fd5b610057610154565b6040516100649190610847565b60405180910390f35b34801561007957600080fd5b50610094600480360381019061008f919061065b565b610239565b6040516100a1919061082c565b60405180910390f35b3480156100b657600080fd5b506100d160048036038101906100cc9190610684565b61027f565b6040516100de91906107e8565b60405180910390f35b61010160048036038101906100fc9190610684565b610332565b60405161010e919061082c565b60405180910390f35b34801561012357600080fd5b5061013e6004803603810190610139919061065b565b610569565b60405161014b919061080a565b60405180910390f35b6000600154600260006101656105d4565b73ffffffffffffffffffffffffffffffffffffffff1673ffffffffffffffffffffffffffffffffffffffff1681526020019081526020016000208190555060608060036000600154815260200190815260200160002090805190602001906101ce9291906105dc565b506101d76105d4565b73ffffffffffffffffffffffffffffffffffffffff166001547f95cb6541033c186cefb81bf06f734a798256d8a6cd70133f8d7b4480b080210060405160405180910390a36001600081548092919061022f90610972565b9190505591505090565b6000600360008381526020019081526020016000206000908060018154018082558091505060019003906000526020600020016000909190919091505560019050919050565b606060056000848152602001908152602001600020600083815260200190815260200160002080548060200260200160405190810160405280929190818152602001828054801561032557602002820191906000526020600020905b8160009054906101000a900473ffffffffffffffffffffffffffffffffffffffff1673ffffffffffffffffffffffffffffffffffffffff16815260200190600101908083116102db575b5050505050905092915050565b6000600460006103406105d4565b73ffffffffffffffffffffffffffffffffffffffff1673ffffffffffffffffffffffffffffffffffffffff168152602001908152602001600020600084815260200190815260200160002060009054906101000a900460ff16156103a75760009050610563565b60016003600085815260200190815260200160002083815481106103f4577f4e487b7100000000000000000000000000000000000000000000000000000000600052603260045260246000fd5b906000526020600020015461040991906108d4565b600360008581526020019081526020016000208381548110610454577f4e487b7100000000000000000000000000000000000000000000000000000000600052603260045260246000fd5b906000526020600020018190555060056000848152602001908152602001600020600083815260200190815260200160002061048e6105d4565b9080600181540180825580915050600190039060005260206000200160009091909190916101000a81548173ffffffffffffffffffffffffffffffffffffffff021916908373ffffffffffffffffffffffffffffffffffffffff1602179055506001600460006104fc6105d4565b73ffffffffffffffffffffffffffffffffffffffff1673ffffffffffffffffffffffffffffffffffffffff168152602001908152602001600020600085815260200190815260200160002060006101000a81548160ff021916908315150217905550600190505b92915050565b6060600360008381526020019081526020016000208054806020026020016040519081016040528092919081815260200182805480156105c857602002820191906000526020600020905b8154815260200190600101908083116105b4575b50505050509050919050565b600033905090565b828054828255906000526020600020908101928215610618579160200282015b828111156106175782518255916020019190600101906105fc565b5b5090506106259190610629565b5090565b5b8082111561064257600081600090555060010161062a565b5090565b600081359050610655816109ea565b92915050565b60006020828403121561066d57600080fd5b600061067b84828501610646565b91505092915050565b6000806040838503121561069757600080fd5b60006106a585828601610646565b92505060206106b685828601610646565b9150509250929050565b60006106cc83836106f0565b60208301905092915050565b60006106e483836107ca565b60208301905092915050565b6106f98161092a565b82525050565b600061070a82610882565b61071481856108b2565b935061071f83610862565b8060005b8381101561075057815161073788826106c0565b975061074283610898565b925050600181019050610723565b5085935050505092915050565b60006107688261088d565b61077281856108c3565b935061077d83610872565b8060005b838110156107ae57815161079588826106d8565b97506107a0836108a5565b925050600181019050610781565b5085935050505092915050565b6107c48161093c565b82525050565b6107d381610968565b82525050565b6107e281610968565b82525050565b6000602082019050818103600083015261080281846106ff565b905092915050565b60006020820190508181036000830152610824818461075d565b905092915050565b600060208201905061084160008301846107bb565b92915050565b600060208201905061085c60008301846107d9565b92915050565b6000819050602082019050919050565b6000819050602082019050919050565b600081519050919050565b600081519050919050565b6000602082019050919050565b6000602082019050919050565b600082825260208201905092915050565b600082825260208201905092915050565b60006108df82610968565b91506108ea83610968565b9250827fffffffffffffffffffffffffffffffffffffffffffffffffffffffffffffffff0382111561091f5761091e6109bb565b5b828201905092915050565b600061093582610948565b9050919050565b60008115159050919050565b600073ffffffffffffffffffffffffffffffffffffffff82169050919050565b6000819050919050565b600061097d82610968565b91507fffffffffffffffffffffffffffffffffffffffffffffffffffffffffffffffff8214156109b0576109af6109bb565b5b600182019050919050565b7f4e487b7100000000000000000000000000000000000000000000000000000000600052601160045260246000fd5b6109f381610968565b81146109fe57600080fd5b5056fea2646970667358221220f43a79ddbe1e16023ea4733904226abe8c4a1abd7c337ef4a60f99da4c60914564736f6c63430008040033",
  "immutableReferences": {},
  "source": "// SPDX-License-Identifier: MIT\npragma solidity ^0.8.4;\n\n// Voting\ncontract Voting {\n\n    // When new publisher was created\n    event VotingCreated(uint256 indexed id, address indexed owner);\n\n    // Owner of the contract (for admin controls)\n    address owner;\n\n    // Votings\n    uint256 votingCounter = 0;\n    mapping (address => uint256) votings;\n    mapping (uint256 => uint256[]) votes;\n    mapping (address => mapping(uint256 => bool)) voted;\n    mapping (uint256 => mapping(uint256 => address[])) voters;\n\n    // Set owner and DI OriToken\n    constructor() {\n        owner = msg.sender;\n    }\n\n    // Create new Voting\n    function createVoting() public payable returns (uint256) {\n        votings[_msgSender()] = votingCounter;\n\n        uint256[] memory emptyArray;\n        votes[votingCounter] = emptyArray;\n\n        emit VotingCreated(votingCounter, _msgSender());\n\n        return votingCounter++;\n    }\n\n    // Add option\n    function addOption(uint256 voting) public returns (bool) {\n        votes[voting].push(0);\n        return true;\n    }\n\n    // Vote\n    function vote(uint256 voting, uint256 _vote) public payable returns (bool) {\n        if (voted[_msgSender()][voting])\n            return false;\n\n        votes[voting][_vote] = votes[voting][_vote] + 1;\n        voters[voting][_vote].push(_msgSender());\n        voted[_msgSender()][voting] = true;\n\n        return true;\n    }\n\n    // Get votes of voting\n    function getVotes(uint256 voting) public view returns (uint256[] memory) {\n        return votes[voting];\n    }\n\n    // Get voters of voting\n    function getVoters(uint256 voting, uint256 _vote) public view returns (address[] memory) {\n        return voters[voting][_vote];\n    }\n\n    // Safe access to msg.sender\n    function _msgSender() internal view virtual returns (address) {\n        return msg.sender;\n    }\n\n}\n",
  "sourcePath": "/Users/michaelhasler/development/voting/contracts/Voting.sol",
  "compiler": {
    "name": "solc",
    "version": "0.8.4+commit.c7e474f2.Emscripten.clang"
  },
  "schemaVersion": "3.4.4",
  "updatedAt": "2022-02-24T09:00:30.659Z",
  "devdoc": {
    "kind": "dev",
    "methods": {},
    "version": 1
  },
  "userdoc": {
    "kind": "user",
    "methods": {},
    "version": 1
  }
}