{
  "contractName": "Voting",
  "abi": [
    {
      "inputs": [],
      "stateMutability": "nonpayable",
      "type": "constructor"
    },
    {
      "anonymous": false,
      "inputs": [
        {
          "indexed": true,
          "internalType": "uint256",
          "name": "id",
          "type": "uint256"
        },
        {
          "indexed": true,
          "internalType": "address",
          "name": "voter",
          "type": "address"
        }
      ],
      "name": "Voted",
      "type": "event"
    },
    {
      "anonymous": false,
      "inputs": [
        {
          "indexed": true,
          "internalType": "uint256",
          "name": "id",
          "type": "uint256"
        },
        {
          "indexed": true,
          "internalType": "address",
          "name": "owner",
          "type": "address"
        }
      ],
      "name": "VotingCreated",
      "type": "event"
    },
    {
      "inputs": [
        {
          "internalType": "string",
          "name": "name",
          "type": "string"
        }
      ],
      "name": "createVoting",
      "outputs": [
        {
          "internalType": "uint256",
          "name": "",
          "type": "uint256"
        }
      ],
      "stateMutability": "payable",
      "type": "function"
    },
    {
      "inputs": [
        {
          "internalType": "uint256",
          "name": "voting",
          "type": "uint256"
        },
        {
          "internalType": "string",
          "name": "name",
          "type": "string"
        }
      ],
      "name": "addOption",
      "outputs": [
        {
          "internalType": "bool",
          "name": "",
          "type": "bool"
        }
      ],
      "stateMutability": "nonpayable",
      "type": "function"
    },
    {
      "inputs": [
        {
          "internalType": "uint256",
          "name": "voting",
          "type": "uint256"
        }
      ],
      "name": "canIVote",
      "outputs": [
        {
          "internalType": "uint256",
          "name": "",
          "type": "uint256"
        }
      ],
      "stateMutability": "view",
      "type": "function"
    },
    {
      "inputs": [
        {
          "internalType": "uint256",
          "name": "voting",
          "type": "uint256"
        }
      ],
      "name": "myVotes",
      "outputs": [
        {
          "internalType": "uint256",
          "name": "",
          "type": "uint256"
        }
      ],
      "stateMutability": "view",
      "type": "function"
    },
    {
      "inputs": [
        {
          "internalType": "uint256",
          "name": "voting",
          "type": "uint256"
        },
        {
          "internalType": "uint256",
          "name": "_vote",
          "type": "uint256"
        }
      ],
      "name": "vote",
      "outputs": [
        {
          "internalType": "bool",
          "name": "",
          "type": "bool"
        }
      ],
      "stateMutability": "payable",
      "type": "function"
    },
    {
      "inputs": [
        {
          "internalType": "address",
          "name": "voter",
          "type": "address"
        },
        {
          "internalType": "uint256",
          "name": "voting",
          "type": "uint256"
        },
        {
          "internalType": "uint256",
          "name": "_votes",
          "type": "uint256"
        }
      ],
      "name": "addVoter",
      "outputs": [
        {
          "internalType": "bool",
          "name": "",
          "type": "bool"
        }
      ],
      "stateMutability": "payable",
      "type": "function"
    },
    {
      "inputs": [
        {
          "internalType": "uint256",
          "name": "voting",
          "type": "uint256"
        }
      ],
      "name": "getVotes",
      "outputs": [
        {
          "internalType": "uint256[]",
          "name": "",
          "type": "uint256[]"
        }
      ],
      "stateMutability": "view",
      "type": "function"
    },
    {
      "inputs": [
        {
          "internalType": "uint256",
          "name": "voting",
          "type": "uint256"
        }
      ],
      "name": "getVotingOptions",
      "outputs": [
        {
          "internalType": "string[]",
          "name": "",
          "type": "string[]"
        }
      ],
      "stateMutability": "view",
      "type": "function"
    },
    {
      "inputs": [
        {
          "internalType": "uint256",
          "name": "voting",
          "type": "uint256"
        },
        {
          "internalType": "uint256",
          "name": "_vote",
          "type": "uint256"
        }
      ],
      "name": "getVoters",
      "outputs": [
        {
          "internalType": "address[]",
          "name": "",
          "type": "address[]"
        }
      ],
      "stateMutability": "view",
      "type": "function"
    },
    {
      "inputs": [
        {
          "internalType": "uint256",
          "name": "_voting",
          "type": "uint256"
        }
      ],
      "name": "closeVoting",
      "outputs": [
        {
          "internalType": "bool",
          "name": "",
          "type": "bool"
        }
      ],
      "stateMutability": "payable",
      "type": "function"
    },
    {
      "inputs": [],
      "name": "availableVotings",
      "outputs": [
        {
          "components": [
            {
              "internalType": "uint256",
              "name": "id",
              "type": "uint256"
            },
            {
              "internalType": "string",
              "name": "name",
              "type": "string"
            }
          ],
          "internalType": "struct Voting.votingModel[]",
          "name": "",
          "type": "tuple[]"
        }
      ],
      "stateMutability": "view",
      "type": "function"
    }
  ],
  "bytecode": "0x6080604052600060015534801561001557600080fd5b50336000806101000a81548173ffffffffffffffffffffffffffffffffffffffff021916908373ffffffffffffffffffffffffffffffffffffffff160217905550611a8d806100656000396000f3fe60806040526004361061009c5760003560e01c8063932f925f11610064578063932f925f146101a6578063b384abef146101e3578063d2111a7214610213578063e4ee00a614610243578063ea57d5d414610280578063ff981099146102bd5761009c565b80633aa68c0d146100a1578063677c3f9c146100de57806367bc9f231461010e5780636b63399a146101395780638884b80714610169575b600080fd5b3480156100ad57600080fd5b506100c860048036038101906100c39190611205565b6102fa565b6040516100d59190611654565b60405180910390f35b6100f860048036038101906100f391906111c4565b61035b565b6040516101059190611654565b60405180910390f35b34801561011a57600080fd5b50610123610499565b60405161013091906115d5565b60405180910390f35b610153600480360381019061014e9190611175565b6106d8565b6040516101609190611619565b60405180910390f35b34801561017557600080fd5b50610190600480360381019061018b9190611282565b610791565b60405161019d9190611591565b60405180910390f35b3480156101b257600080fd5b506101cd60048036038101906101c89190611205565b610844565b6040516101da9190611654565b60405180910390f35b6101fd60048036038101906101f89190611282565b6108a5565b60405161020a9190611619565b60405180910390f35b61022d60048036038101906102289190611205565b610c63565b60405161023a9190611619565b60405180910390f35b34801561024f57600080fd5b5061026a60048036038101906102659190611205565b610d22565b60405161027791906115b3565b60405180910390f35b34801561028c57600080fd5b506102a760048036038101906102a2919061122e565b610e0e565b6040516102b49190611619565b60405180910390f35b3480156102c957600080fd5b506102e460048036038101906102df9190611205565b610ea2565b6040516102f191906115f7565b60405180910390f35b600060096000610308610f0d565b73ffffffffffffffffffffffffffffffffffffffff1673ffffffffffffffffffffffffffffffffffffffff1681526020019081526020016000206000838152602001908152602001600020549050919050565b60006001546002600061036c610f0d565b73ffffffffffffffffffffffffffffffffffffffff1673ffffffffffffffffffffffffffffffffffffffff1681526020019081526020016000208190555060608060046000600154815260200190815260200160002090805190602001906103d5929190610f15565b508260066000600154815260200190815260200160002090805190602001906103ff929190610f62565b50606080600560006001548152602001908152602001600020908051906020019061042b929190610fe8565b50610434610f0d565b73ffffffffffffffffffffffffffffffffffffffff166001547f95cb6541033c186cefb81bf06f734a798256d8a6cd70133f8d7b4480b080210060405160405180910390a36001600081548092919061048c90611919565b9190505592505050919050565b60606000600a67ffffffffffffffff8111156104de577f4e487b7100000000000000000000000000000000000000000000000000000000600052604160045260246000fd5b60405190808252806020026020018201604052801561051757816020015b610504611048565b8152602001906001900390816104fc5790505b5090506000805b6001548110156106cf57600060096000610536610f0d565b73ffffffffffffffffffffffffffffffffffffffff1673ffffffffffffffffffffffffffffffffffffffff16815260200190815260200160002060008381526020019081526020016000205411156106bc57600115156003600083815260200190815260200160002060009054906101000a900460ff161515146106bb57600060405180604001604052808381526020016006600085815260200190815260200160002080546105e5906118b6565b80601f0160208091040260200160405190810160405280929190818152602001828054610611906118b6565b801561065e5780601f106106335761010080835404028352916020019161065e565b820191906000526020600020905b81548152906001019060200180831161064157829003601f168201915b505050505081525090508084848061067590611919565b9550815181106106ae577f4e487b7100000000000000000000000000000000000000000000000000000000600052603260045260246000fd5b6020026020010181905250505b5b80806106c790611919565b91505061051e565b50819250505090565b600082600260006106e7610f0d565b73ffffffffffffffffffffffffffffffffffffffff1673ffffffffffffffffffffffffffffffffffffffff1681526020019081526020016000205414610730576000905061078a565b81600960008673ffffffffffffffffffffffffffffffffffffffff1673ffffffffffffffffffffffffffffffffffffffff168152602001908152602001600020600085815260200190815260200160002081905550600190505b9392505050565b606060086000848152602001908152602001600020600083815260200190815260200160002080548060200260200160405190810160405280929190818152602001828054801561083757602002820191906000526020600020905b8160009054906101000a900473ffffffffffffffffffffffffffffffffffffffff1673ffffffffffffffffffffffffffffffffffffffff16815260200190600101908083116107ed575b5050505050905092915050565b600060076000610852610f0d565b73ffffffffffffffffffffffffffffffffffffffff1673ffffffffffffffffffffffffffffffffffffffff1681526020019081526020016000206000838152602001908152602001600020549050919050565b600080600960006108b4610f0d565b73ffffffffffffffffffffffffffffffffffffffff1673ffffffffffffffffffffffffffffffffffffffff168152602001908152602001600020600085815260200190815260200160002054141561090f5760009050610c5d565b6007600061091b610f0d565b73ffffffffffffffffffffffffffffffffffffffff1673ffffffffffffffffffffffffffffffffffffffff16815260200190815260200160002060008481526020019081526020016000205460096000610973610f0d565b73ffffffffffffffffffffffffffffffffffffffff1673ffffffffffffffffffffffffffffffffffffffff16815260200190815260200160002060008581526020019081526020016000205414156109ce5760009050610c5d565b600115156003600085815260200190815260200160002060009054906101000a900460ff1615151415610a045760009050610c5d565b6001600460008581526020019081526020016000208381548110610a51577f4e487b7100000000000000000000000000000000000000000000000000000000600052603260045260246000fd5b9060005260206000200154610a6691906117d6565b600460008581526020019081526020016000208381548110610ab1577f4e487b7100000000000000000000000000000000000000000000000000000000600052603260045260246000fd5b9060005260206000200181905550600860008481526020019081526020016000206000838152602001908152602001600020610aeb610f0d565b9080600181540180825580915050600190039060005260206000200160009091909190916101000a81548173ffffffffffffffffffffffffffffffffffffffff021916908373ffffffffffffffffffffffffffffffffffffffff16021790555060076000610b57610f0d565b73ffffffffffffffffffffffffffffffffffffffff1673ffffffffffffffffffffffffffffffffffffffff16815260200190815260200160002060008481526020019081526020016000206000815480929190610bb390611919565b9190505550610bc0610f0d565b73ffffffffffffffffffffffffffffffffffffffff16600460008581526020019081526020016000208381548110610c21577f4e487b7100000000000000000000000000000000000000000000000000000000600052603260045260246000fd5b90600052602060002001547f030b0f8dcd86a031eddb071f91882edeac8173663ba775713b677b42b51be44b60405160405180910390a3600190505b92915050565b60008160026000610c72610f0d565b73ffffffffffffffffffffffffffffffffffffffff1673ffffffffffffffffffffffffffffffffffffffff1681526020019081526020016000205414610ced576040517f08c379a0000000000000000000000000000000000000000000000000000000008152600401610ce490611634565b60405180910390fd5b60016003600084815260200190815260200160002060006101000a81548160ff02191690831515021790555060019050919050565b606060056000838152602001908152602001600020805480602002602001604051908101604052809291908181526020016000905b82821015610e03578382906000526020600020018054610d76906118b6565b80601f0160208091040260200160405190810160405280929190818152602001828054610da2906118b6565b8015610def5780601f10610dc457610100808354040283529160200191610def565b820191906000526020600020905b815481529060010190602001808311610dd257829003601f168201915b505050505081526020019060010190610d57565b505050509050919050565b600060046000848152602001908152602001600020600090806001815401808255809150506001900390600052602060002001600090919091909150556005600084815260200190815260200160002082908060018154018082558091505060019003906000526020600020016000909190919091509080519060200190610e97929190610f62565b506001905092915050565b606060046000838152602001908152602001600020805480602002602001604051908101604052809291908181526020018280548015610f0157602002820191906000526020600020905b815481526020019060010190808311610eed575b50505050509050919050565b600033905090565b828054828255906000526020600020908101928215610f51579160200282015b82811115610f50578251825591602001919060010190610f35565b5b509050610f5e9190611062565b5090565b828054610f6e906118b6565b90600052602060002090601f016020900481019282610f905760008555610fd7565b82601f10610fa957805160ff1916838001178555610fd7565b82800160010185558215610fd7579182015b82811115610fd6578251825591602001919060010190610fbb565b5b509050610fe49190611062565b5090565b828054828255906000526020600020908101928215611037579160200282015b82811115611036578251829080519060200190611026929190610f62565b5091602001919060010190611008565b5b509050611044919061107f565b5090565b604051806040016040528060008152602001606081525090565b5b8082111561107b576000816000905550600101611063565b5090565b5b8082111561109f576000818161109691906110a3565b50600101611080565b5090565b5080546110af906118b6565b6000825580601f106110c157506110e0565b601f0160209004906000526020600020908101906110df9190611062565b5b50565b60006110f66110f184611694565b61166f565b90508281526020810184848401111561110e57600080fd5b611119848285611874565b509392505050565b60008135905061113081611a29565b92915050565b600082601f83011261114757600080fd5b81356111578482602086016110e3565b91505092915050565b60008135905061116f81611a40565b92915050565b60008060006060848603121561118a57600080fd5b600061119886828701611121565b93505060206111a986828701611160565b92505060406111ba86828701611160565b9150509250925092565b6000602082840312156111d657600080fd5b600082013567ffffffffffffffff8111156111f057600080fd5b6111fc84828501611136565b91505092915050565b60006020828403121561121757600080fd5b600061122584828501611160565b91505092915050565b6000806040838503121561124157600080fd5b600061124f85828601611160565b925050602083013567ffffffffffffffff81111561126c57600080fd5b61127885828601611136565b9150509250929050565b6000806040838503121561129557600080fd5b60006112a385828601611160565b92505060206112b485828601611160565b9150509250929050565b60006112ca8383611316565b60208301905092915050565b60006112e283836114da565b905092915050565b60006112f68383611536565b905092915050565b600061130a8383611573565b60208301905092915050565b61131f8161182c565b82525050565b600061133082611705565b61133a8185611770565b9350611345836116c5565b8060005b8381101561137657815161135d88826112be565b97506113688361173c565b925050600181019050611349565b5085935050505092915050565b600061138e82611710565b6113988185611781565b9350836020820285016113aa856116d5565b8060005b858110156113e657848403895281516113c785826112d6565b94506113d283611749565b925060208a019950506001810190506113ae565b50829750879550505050505092915050565b60006114038261171b565b61140d8185611792565b93508360208202850161141f856116e5565b8060005b8581101561145b578484038952815161143c85826112ea565b945061144783611756565b925060208a01995050600181019050611423565b50829750879550505050505092915050565b600061147882611726565b61148281856117a3565b935061148d836116f5565b8060005b838110156114be5781516114a588826112fe565b97506114b083611763565b925050600181019050611491565b5085935050505092915050565b6114d48161183e565b82525050565b60006114e582611731565b6114ef81856117b4565b93506114ff818560208601611883565b611508816119ef565b840191505092915050565b6000611520601b836117c5565b915061152b82611a00565b602082019050919050565b600060408301600083015161154e6000860182611573565b506020830151848203602086015261156682826114da565b9150508091505092915050565b61157c8161186a565b82525050565b61158b8161186a565b82525050565b600060208201905081810360008301526115ab8184611325565b905092915050565b600060208201905081810360008301526115cd8184611383565b905092915050565b600060208201905081810360008301526115ef81846113f8565b905092915050565b60006020820190508181036000830152611611818461146d565b905092915050565b600060208201905061162e60008301846114cb565b92915050565b6000602082019050818103600083015261164d81611513565b9050919050565b60006020820190506116696000830184611582565b92915050565b600061167961168a565b905061168582826118e8565b919050565b6000604051905090565b600067ffffffffffffffff8211156116af576116ae6119c0565b5b6116b8826119ef565b9050602081019050919050565b6000819050602082019050919050565b6000819050602082019050919050565b6000819050602082019050919050565b6000819050602082019050919050565b600081519050919050565b600081519050919050565b600081519050919050565b600081519050919050565b600081519050919050565b6000602082019050919050565b6000602082019050919050565b6000602082019050919050565b6000602082019050919050565b600082825260208201905092915050565b600082825260208201905092915050565b600082825260208201905092915050565b600082825260208201905092915050565b600082825260208201905092915050565b600082825260208201905092915050565b60006117e18261186a565b91506117ec8361186a565b9250827fffffffffffffffffffffffffffffffffffffffffffffffffffffffffffffffff0382111561182157611820611962565b5b828201905092915050565b60006118378261184a565b9050919050565b60008115159050919050565b600073ffffffffffffffffffffffffffffffffffffffff82169050919050565b6000819050919050565b82818337600083830152505050565b60005b838110156118a1578082015181840152602081019050611886565b838111156118b0576000848401525b50505050565b600060028204905060018216806118ce57607f821691505b602082108114156118e2576118e1611991565b5b50919050565b6118f1826119ef565b810181811067ffffffffffffffff821117156119105761190f6119c0565b5b80604052505050565b60006119248261186a565b91507fffffffffffffffffffffffffffffffffffffffffffffffffffffffffffffffff82141561195757611956611962565b5b600182019050919050565b7f4e487b7100000000000000000000000000000000000000000000000000000000600052601160045260246000fd5b7f4e487b7100000000000000000000000000000000000000000000000000000000600052602260045260246000fd5b7f4e487b7100000000000000000000000000000000000000000000000000000000600052604160045260246000fd5b6000601f19601f8301169050919050565b7f4f6e6c79206f776e65722063616e20636c6f736520766f74696e670000000000600082015250565b611a328161182c565b8114611a3d57600080fd5b50565b611a498161186a565b8114611a5457600080fd5b5056fea2646970667358221220294cc2990c5028ebdd7a815cd03a7803b2363f5b787cb2754638a8601674390364736f6c63430008040033",
  "immutableReferences": {},
  "source": "// SPDX-License-Identifier: MIT\npragma solidity ^0.8.4;\n\n// Voting\ncontract Voting {\n\n    // When new voting was created\n    event VotingCreated(uint256 indexed id, address indexed owner);\n    event Voted(uint256 indexed id, address indexed voter);\n\n    // Owner of the contract (for admin controls)\n    address owner;\n\n    // Votings\n    uint256 votingCounter = 0;\n    mapping (address => uint256) votings;\n    mapping (uint256 => bool) closedVotings;\n    mapping (uint256 => uint256[]) votes;\n    mapping (uint256 => string[]) optionNames;\n    mapping (uint256 => string) votesName;\n    mapping (address => mapping(uint256 => uint256)) voted;\n    mapping (uint256 => mapping(uint256 => address[])) voters;\n\n    // allowed to vote\n    mapping (address => mapping(uint256 => uint256)) votingAllowed;\n\n    // Set owner and DI OriToken\n    constructor() {\n        owner = msg.sender;\n    }\n\n    // Create new Voting\n    function createVoting(string memory name) public payable returns (uint256) {\n        votings[_msgSender()] = votingCounter;\n\n        uint256[] memory emptyArray;\n        votes[votingCounter] = emptyArray;\n        votesName[votingCounter] = name;\n\n        string[] memory _optionNames;\n        optionNames[votingCounter] = _optionNames;\n\n        emit VotingCreated(votingCounter, _msgSender());\n\n        return votingCounter++;\n    }\n\n    struct votingModel {\n        uint256 id;\n        string name;\n    }\n\n    // Add option\n    function addOption(uint256 voting, string memory name) public returns (bool) {\n        votes[voting].push(0);\n        optionNames[voting].push(name);\n        return true;\n    }\n\n    function canIVote(uint256 voting) public view returns (uint256){\n        return votingAllowed[_msgSender()][voting];\n    }\n\n    function myVotes(uint256 voting) public view returns (uint256){\n        return voted[_msgSender()][voting];\n    }\n\n    // Vote\n    function vote(uint256 voting, uint256 _vote) public payable returns (bool) {\n        if (votingAllowed[_msgSender()][voting] == 0)\n            return false;\n\n        if (votingAllowed[_msgSender()][voting] == voted[_msgSender()][voting])\n            return false;\n\n        if (closedVotings[voting] == true)\n            return false;\n\n        votes[voting][_vote] = votes[voting][_vote] + 1;\n        voters[voting][_vote].push(_msgSender());\n        voted[_msgSender()][voting]++;\n\n        emit Voted(votes[voting][_vote], _msgSender());\n\n        return true;\n    }\n\n    // add voter (only from the one who created voting)\n    function addVoter(address voter, uint256 voting, uint256 _votes) public payable returns (bool) {\n        if (votings[_msgSender()] != voting)\n            return false;\n\n        votingAllowed[voter][voting] = _votes;\n\n        return true;\n    }\n\n    // Get votes of voting\n    function getVotes(uint256 voting) public view returns (uint256[] memory) {\n        return votes[voting];\n    }\n\n    function getVotingOptions(uint256 voting) public view returns (string[] memory){\n        return optionNames[voting];\n    }\n\n    // Get voters of voting\n    function getVoters(uint256 voting, uint256 _vote) public view returns (address[] memory) {\n        return voters[voting][_vote];\n    }\n\n    // close voting\n    function closeVoting(uint256 _voting) public payable returns (bool) {\n        require(votings[_msgSender()] == _voting, \"Only owner can close voting\");\n\n        closedVotings[_voting] = true;\n\n        return true;\n    }\n\n    // get votings of one\n    function availableVotings() public view returns (votingModel[] memory) {\n        votingModel[] memory myVotings = new votingModel[](10);\n        uint256 counter = 0;\n\n        for (uint i=0; i<votingCounter; i++) {\n            if (votingAllowed[_msgSender()][i] > 0){\n                if (closedVotings[i] != true) {\n                    votingModel memory v = votingModel(i, votesName[i]);\n                    myVotings[counter++] = v;\n                }\n            }\n        }\n\n        return myVotings;\n    }\n\n    // Safe access to msg.sender\n    function _msgSender() internal view virtual returns (address) {\n        return msg.sender;\n    }\n\n}\n",
  "sourcePath": "/Users/michaelhasler/development/voting/contracts/Voting.sol",
  "compiler": {
    "name": "solc",
    "version": "0.8.4+commit.c7e474f2.Emscripten.clang"
  },
  "schemaVersion": "3.4.4",
  "updatedAt": "2022-03-03T18:37:44.560Z",
  "devdoc": {
    "kind": "dev",
    "methods": {},
    "version": 1
  },
  "userdoc": {
    "kind": "user",
    "methods": {},
    "version": 1
  }
}